{
  "_format": "hh-sol-artifact-1",
  "contractName": "ICO",
  "sourceName": "contracts/ICO.sol",
  "abi": [
    {
      "inputs": [
        {
          "internalType": "address",
          "name": "_tokenAddress",
          "type": "address"
        }
      ],
      "stateMutability": "nonpayable",
      "type": "constructor"
    },
    {
      "inputs": [],
      "name": "EnforcedPause",
      "type": "error"
    },
    {
      "inputs": [],
      "name": "ExpectedPause",
      "type": "error"
    },
    {
      "inputs": [
        {
          "internalType": "address",
          "name": "owner",
          "type": "address"
        }
      ],
      "name": "OwnableInvalidOwner",
      "type": "error"
    },
    {
      "inputs": [
        {
          "internalType": "address",
          "name": "account",
          "type": "address"
        }
      ],
      "name": "OwnableUnauthorizedAccount",
      "type": "error"
    },
    {
      "inputs": [
        {
          "internalType": "address",
          "name": "token",
          "type": "address"
        }
      ],
      "name": "SafeERC20FailedOperation",
      "type": "error"
    },
    {
      "anonymous": false,
      "inputs": [
        {
          "indexed": true,
          "internalType": "address",
          "name": "previousOwner",
          "type": "address"
        },
        {
          "indexed": true,
          "internalType": "address",
          "name": "newOwner",
          "type": "address"
        }
      ],
      "name": "OwnershipTransferred",
      "type": "event"
    },
    {
      "anonymous": false,
      "inputs": [
        {
          "indexed": false,
          "internalType": "address",
          "name": "account",
          "type": "address"
        }
      ],
      "name": "Paused",
      "type": "event"
    },
    {
      "anonymous": false,
      "inputs": [
        {
          "indexed": false,
          "internalType": "address",
          "name": "account",
          "type": "address"
        }
      ],
      "name": "Unpaused",
      "type": "event"
    },
    {
      "inputs": [],
      "name": "buyToken",
      "outputs": [],
      "stateMutability": "payable",
      "type": "function"
    },
    {
      "inputs": [],
      "name": "owner",
      "outputs": [
        {
          "internalType": "address",
          "name": "",
          "type": "address"
        }
      ],
      "stateMutability": "view",
      "type": "function"
    },
    {
      "inputs": [],
      "name": "pause",
      "outputs": [],
      "stateMutability": "nonpayable",
      "type": "function"
    },
    {
      "inputs": [],
      "name": "paused",
      "outputs": [
        {
          "internalType": "bool",
          "name": "",
          "type": "bool"
        }
      ],
      "stateMutability": "view",
      "type": "function"
    },
    {
      "inputs": [],
      "name": "price",
      "outputs": [
        {
          "internalType": "uint256",
          "name": "",
          "type": "uint256"
        }
      ],
      "stateMutability": "view",
      "type": "function"
    },
    {
      "inputs": [],
      "name": "renounceOwnership",
      "outputs": [],
      "stateMutability": "nonpayable",
      "type": "function"
    },
    {
      "inputs": [],
      "name": "token",
      "outputs": [
        {
          "internalType": "contract IERC20",
          "name": "",
          "type": "address"
        }
      ],
      "stateMutability": "view",
      "type": "function"
    },
    {
      "inputs": [],
      "name": "totalTokensSold",
      "outputs": [
        {
          "internalType": "uint256",
          "name": "",
          "type": "uint256"
        }
      ],
      "stateMutability": "view",
      "type": "function"
    },
    {
      "inputs": [
        {
          "internalType": "address",
          "name": "newOwner",
          "type": "address"
        }
      ],
      "name": "transferOwnership",
      "outputs": [],
      "stateMutability": "nonpayable",
      "type": "function"
    },
    {
      "inputs": [],
      "name": "unpause",
      "outputs": [],
      "stateMutability": "nonpayable",
      "type": "function"
    },
    {
      "inputs": [],
      "name": "withdrawal",
      "outputs": [],
      "stateMutability": "nonpayable",
      "type": "function"
    }
  ],
  "bytecode": "0x6080604052670de0b6b3a764000060025534801561001c57600080fd5b50604051610d96380380610d96833981810160405281019061003e9190610230565b33600073ffffffffffffffffffffffffffffffffffffffff168173ffffffffffffffffffffffffffffffffffffffff16036100b15760006040517f1e4fbdf70000000000000000000000000000000000000000000000000000000081526004016100a8919061026c565b60405180910390fd5b6100c08161010860201b60201c565b5080600160006101000a81548173ffffffffffffffffffffffffffffffffffffffff021916908373ffffffffffffffffffffffffffffffffffffffff16021790555050610287565b60008060019054906101000a900473ffffffffffffffffffffffffffffffffffffffff16905081600060016101000a81548173ffffffffffffffffffffffffffffffffffffffff021916908373ffffffffffffffffffffffffffffffffffffffff1602179055508173ffffffffffffffffffffffffffffffffffffffff168173ffffffffffffffffffffffffffffffffffffffff167f8be0079c531659141344cd1fd0a4f28419497f9722a3daafe3b4186f6b6457e060405160405180910390a35050565b600080fd5b600073ffffffffffffffffffffffffffffffffffffffff82169050919050565b60006101fd826101d2565b9050919050565b61020d816101f2565b811461021857600080fd5b50565b60008151905061022a81610204565b92915050565b600060208284031215610246576102456101cd565b5b60006102548482850161021b565b91505092915050565b610266816101f2565b82525050565b6000602082019050610281600083018461025d565b92915050565b610b00806102966000396000f3fe60806040526004361061009c5760003560e01c80638da5cb5b116100645780638da5cb5b1461013c578063a035b1fe14610167578063a482171914610192578063d4e932921461019c578063f2fde38b146101b3578063fc0c546a146101dc5761009c565b80633f4ba83a146100a15780635c975abb146100b857806363b20117146100e3578063715018a61461010e5780638456cb5914610125575b600080fd5b3480156100ad57600080fd5b506100b6610207565b005b3480156100c457600080fd5b506100cd610219565b6040516100da919061080b565b60405180910390f35b3480156100ef57600080fd5b506100f861022f565b604051610105919061083f565b60405180910390f35b34801561011a57600080fd5b50610123610235565b005b34801561013157600080fd5b5061013a610249565b005b34801561014857600080fd5b5061015161025b565b60405161015e919061089b565b60405180910390f35b34801561017357600080fd5b5061017c610284565b604051610189919061083f565b60405180910390f35b61019a61028a565b005b3480156101a857600080fd5b506101b161032f565b005b3480156101bf57600080fd5b506101da60048036038101906101d591906108e7565b610387565b005b3480156101e857600080fd5b506101f161040d565b6040516101fe9190610973565b60405180910390f35b61020f610433565b6102176104ba565b565b60008060009054906101000a900460ff16905090565b60035481565b61023d610433565b610247600061051c565b565b610251610433565b6102596105e1565b565b60008060019054906101000a900473ffffffffffffffffffffffffffffffffffffffff16905090565b60025481565b610292610643565b60003490506000670de0b6b3a7640000600254836102b091906109ec565b6102ba9190610a1d565b90506103126102c761025b565b3383600160009054906101000a900473ffffffffffffffffffffffffffffffffffffffff1673ffffffffffffffffffffffffffffffffffffffff16610684909392919063ffffffff16565b80600360008282546103249190610a5f565b925050819055505050565b610337610433565b61033f61025b565b73ffffffffffffffffffffffffffffffffffffffff166108fc479081150290604051600060405180830381858888f19350505050158015610384573d6000803e3d6000fd5b50565b61038f610433565b600073ffffffffffffffffffffffffffffffffffffffff168173ffffffffffffffffffffffffffffffffffffffff16036104015760006040517f1e4fbdf70000000000000000000000000000000000000000000000000000000081526004016103f8919061089b565b60405180910390fd5b61040a8161051c565b50565b600160009054906101000a900473ffffffffffffffffffffffffffffffffffffffff1681565b61043b610706565b73ffffffffffffffffffffffffffffffffffffffff1661045961025b565b73ffffffffffffffffffffffffffffffffffffffff16146104b85761047c610706565b6040517f118cdaa70000000000000000000000000000000000000000000000000000000081526004016104af919061089b565b60405180910390fd5b565b6104c261070e565b60008060006101000a81548160ff0219169083151502179055507f5db9ee0a495bf2e6ff9c91a7834c1ba4fdd244a5e8aa4e537bd38aeae4b073aa610505610706565b604051610512919061089b565b60405180910390a1565b60008060019054906101000a900473ffffffffffffffffffffffffffffffffffffffff16905081600060016101000a81548173ffffffffffffffffffffffffffffffffffffffff021916908373ffffffffffffffffffffffffffffffffffffffff1602179055508173ffffffffffffffffffffffffffffffffffffffff168173ffffffffffffffffffffffffffffffffffffffff167f8be0079c531659141344cd1fd0a4f28419497f9722a3daafe3b4186f6b6457e060405160405180910390a35050565b6105e9610643565b60016000806101000a81548160ff0219169083151502179055507f62e78cea01bee320cd4e420270b5ea74000d11b0c9f74754ebdbfc544b05a25861062c610706565b604051610639919061089b565b60405180910390a1565b61064b610219565b15610682576040517fd93c066500000000000000000000000000000000000000000000000000000000815260040160405180910390fd5b565b610700848573ffffffffffffffffffffffffffffffffffffffff166323b872dd8686866040516024016106b993929190610a93565b604051602081830303815290604052915060e01b6020820180517bffffffffffffffffffffffffffffffffffffffffffffffffffffffff838183161783525050505061074e565b50505050565b600033905090565b610716610219565b61074c576040517f8dfc202b00000000000000000000000000000000000000000000000000000000815260040160405180910390fd5b565b600080602060008451602086016000885af180610771576040513d6000823e3d81fd5b3d92506000519150506000821461078c5760018114156107a8565b60008473ffffffffffffffffffffffffffffffffffffffff163b145b156107ea57836040517f5274afe70000000000000000000000000000000000000000000000000000000081526004016107e1919061089b565b60405180910390fd5b50505050565b60008115159050919050565b610805816107f0565b82525050565b600060208201905061082060008301846107fc565b92915050565b6000819050919050565b61083981610826565b82525050565b60006020820190506108546000830184610830565b92915050565b600073ffffffffffffffffffffffffffffffffffffffff82169050919050565b60006108858261085a565b9050919050565b6108958161087a565b82525050565b60006020820190506108b0600083018461088c565b92915050565b600080fd5b6108c48161087a565b81146108cf57600080fd5b50565b6000813590506108e1816108bb565b92915050565b6000602082840312156108fd576108fc6108b6565b5b600061090b848285016108d2565b91505092915050565b6000819050919050565b600061093961093461092f8461085a565b610914565b61085a565b9050919050565b600061094b8261091e565b9050919050565b600061095d82610940565b9050919050565b61096d81610952565b82525050565b60006020820190506109886000830184610964565b92915050565b7f4e487b7100000000000000000000000000000000000000000000000000000000600052601260045260246000fd5b7f4e487b7100000000000000000000000000000000000000000000000000000000600052601160045260246000fd5b60006109f782610826565b9150610a0283610826565b925082610a1257610a1161098e565b5b828204905092915050565b6000610a2882610826565b9150610a3383610826565b9250828202610a4181610826565b91508282048414831517610a5857610a576109bd565b5b5092915050565b6000610a6a82610826565b9150610a7583610826565b9250828201905080821115610a8d57610a8c6109bd565b5b92915050565b6000606082019050610aa8600083018661088c565b610ab5602083018561088c565b610ac26040830184610830565b94935050505056fea2646970667358221220ce58a0c137443fbaf964a3e881b074d80f3b4efc1ae6f7c93378276e2602582364736f6c634300081c0033",
  "linkReferences": {},
  "deployedLinkReferences": {}
}